{
  "_format": "hh-sol-artifact-1",
  "contractName": "CredentialsRegistry",
  "sourceName": "contracts/CredentialsRegistry.sol",
  "abi": [
    {
      "inputs": [],
      "stateMutability": "nonpayable",
      "type": "constructor"
    },
    {
      "anonymous": false,
      "inputs": [
        {
          "indexed": true,
          "internalType": "address",
          "name": "owner",
          "type": "address"
        },
        {
          "indexed": true,
          "internalType": "address",
          "name": "approved",
          "type": "address"
        },
        {
          "indexed": true,
          "internalType": "uint256",
          "name": "tokenId",
          "type": "uint256"
        }
      ],
      "name": "Approval",
      "type": "event"
    },
    {
      "anonymous": false,
      "inputs": [
        {
          "indexed": true,
          "internalType": "address",
          "name": "owner",
          "type": "address"
        },
        {
          "indexed": true,
          "internalType": "address",
          "name": "operator",
          "type": "address"
        },
        {
          "indexed": false,
          "internalType": "bool",
          "name": "approved",
          "type": "bool"
        }
      ],
      "name": "ApprovalForAll",
      "type": "event"
    },
    {
      "anonymous": false,
      "inputs": [
        {
          "indexed": true,
          "internalType": "uint256",
          "name": "tokenId",
          "type": "uint256"
        },
        {
          "indexed": false,
          "internalType": "address",
          "name": "issuer",
          "type": "address"
        },
        {
          "indexed": false,
          "internalType": "address",
          "name": "owner",
          "type": "address"
        },
        {
          "indexed": false,
          "internalType": "bool",
          "name": "claimed",
          "type": "bool"
        }
      ],
      "name": "CredentialCreated",
      "type": "event"
    },
    {
      "anonymous": false,
      "inputs": [
        {
          "indexed": true,
          "internalType": "address",
          "name": "from",
          "type": "address"
        },
        {
          "indexed": true,
          "internalType": "address",
          "name": "to",
          "type": "address"
        },
        {
          "indexed": true,
          "internalType": "uint256",
          "name": "tokenId",
          "type": "uint256"
        }
      ],
      "name": "Transfer",
      "type": "event"
    },
    {
      "inputs": [
        {
          "internalType": "address",
          "name": "to",
          "type": "address"
        },
        {
          "internalType": "uint256",
          "name": "tokenId",
          "type": "uint256"
        }
      ],
      "name": "approve",
      "outputs": [],
      "stateMutability": "nonpayable",
      "type": "function"
    },
    {
      "inputs": [
        {
          "internalType": "address",
          "name": "owner",
          "type": "address"
        }
      ],
      "name": "balanceOf",
      "outputs": [
        {
          "internalType": "uint256",
          "name": "",
          "type": "uint256"
        }
      ],
      "stateMutability": "view",
      "type": "function"
    },
    {
      "inputs": [
        {
          "internalType": "uint256",
          "name": "tokenId",
          "type": "uint256"
        }
      ],
      "name": "claimCredential",
      "outputs": [],
      "stateMutability": "nonpayable",
      "type": "function"
    },
    {
      "inputs": [
        {
          "internalType": "string",
          "name": "tokenURI",
          "type": "string"
        }
      ],
      "name": "createCredentialToken",
      "outputs": [
        {
          "internalType": "uint256",
          "name": "",
          "type": "uint256"
        }
      ],
      "stateMutability": "nonpayable",
      "type": "function"
    },
    {
      "inputs": [],
      "name": "fetchAllCredentials",
      "outputs": [
        {
          "components": [
            {
              "internalType": "uint256",
              "name": "tokenId",
              "type": "uint256"
            },
            {
              "internalType": "address",
              "name": "issuer",
              "type": "address"
            },
            {
              "internalType": "address",
              "name": "owner",
              "type": "address"
            },
            {
              "internalType": "bool",
              "name": "claimed",
              "type": "bool"
            }
          ],
          "internalType": "struct CredentialsRegistry.Credential[]",
          "name": "",
          "type": "tuple[]"
        }
      ],
      "stateMutability": "view",
      "type": "function"
    },
    {
      "inputs": [
        {
          "internalType": "uint256",
          "name": "credentialId",
          "type": "uint256"
        }
      ],
      "name": "fetchCredentialById",
      "outputs": [
        {
          "components": [
            {
              "internalType": "uint256",
              "name": "tokenId",
              "type": "uint256"
            },
            {
              "internalType": "address",
              "name": "issuer",
              "type": "address"
            },
            {
              "internalType": "address",
              "name": "owner",
              "type": "address"
            },
            {
              "internalType": "bool",
              "name": "claimed",
              "type": "bool"
            }
          ],
          "internalType": "struct CredentialsRegistry.Credential[]",
          "name": "",
          "type": "tuple[]"
        }
      ],
      "stateMutability": "view",
      "type": "function"
    },
    {
      "inputs": [
        {
          "internalType": "address",
          "name": "ownerAddress",
          "type": "address"
        }
      ],
      "name": "fetchCredentialsByOwner",
      "outputs": [
        {
          "components": [
            {
              "internalType": "uint256",
              "name": "tokenId",
              "type": "uint256"
            },
            {
              "internalType": "address",
              "name": "issuer",
              "type": "address"
            },
            {
              "internalType": "address",
              "name": "owner",
              "type": "address"
            },
            {
              "internalType": "bool",
              "name": "claimed",
              "type": "bool"
            }
          ],
          "internalType": "struct CredentialsRegistry.Credential[]",
          "name": "",
          "type": "tuple[]"
        }
      ],
      "stateMutability": "view",
      "type": "function"
    },
    {
      "inputs": [],
      "name": "fetchIssuedCredentials",
      "outputs": [
        {
          "components": [
            {
              "internalType": "uint256",
              "name": "tokenId",
              "type": "uint256"
            },
            {
              "internalType": "address",
              "name": "issuer",
              "type": "address"
            },
            {
              "internalType": "address",
              "name": "owner",
              "type": "address"
            },
            {
              "internalType": "bool",
              "name": "claimed",
              "type": "bool"
            }
          ],
          "internalType": "struct CredentialsRegistry.Credential[]",
          "name": "",
          "type": "tuple[]"
        }
      ],
      "stateMutability": "view",
      "type": "function"
    },
    {
      "inputs": [],
      "name": "fetchMyCredentials",
      "outputs": [
        {
          "components": [
            {
              "internalType": "uint256",
              "name": "tokenId",
              "type": "uint256"
            },
            {
              "internalType": "address",
              "name": "issuer",
              "type": "address"
            },
            {
              "internalType": "address",
              "name": "owner",
              "type": "address"
            },
            {
              "internalType": "bool",
              "name": "claimed",
              "type": "bool"
            }
          ],
          "internalType": "struct CredentialsRegistry.Credential[]",
          "name": "",
          "type": "tuple[]"
        }
      ],
      "stateMutability": "view",
      "type": "function"
    },
    {
      "inputs": [],
      "name": "fetchUnclaimedCredentials",
      "outputs": [
        {
          "components": [
            {
              "internalType": "uint256",
              "name": "tokenId",
              "type": "uint256"
            },
            {
              "internalType": "address",
              "name": "issuer",
              "type": "address"
            },
            {
              "internalType": "address",
              "name": "owner",
              "type": "address"
            },
            {
              "internalType": "bool",
              "name": "claimed",
              "type": "bool"
            }
          ],
          "internalType": "struct CredentialsRegistry.Credential[]",
          "name": "",
          "type": "tuple[]"
        }
      ],
      "stateMutability": "view",
      "type": "function"
    },
    {
      "inputs": [
        {
          "internalType": "uint256",
          "name": "tokenId",
          "type": "uint256"
        }
      ],
      "name": "getApproved",
      "outputs": [
        {
          "internalType": "address",
          "name": "",
          "type": "address"
        }
      ],
      "stateMutability": "view",
      "type": "function"
    },
    {
      "inputs": [
        {
          "internalType": "address",
          "name": "owner",
          "type": "address"
        },
        {
          "internalType": "address",
          "name": "operator",
          "type": "address"
        }
      ],
      "name": "isApprovedForAll",
      "outputs": [
        {
          "internalType": "bool",
          "name": "",
          "type": "bool"
        }
      ],
      "stateMutability": "view",
      "type": "function"
    },
    {
      "inputs": [],
      "name": "name",
      "outputs": [
        {
          "internalType": "string",
          "name": "",
          "type": "string"
        }
      ],
      "stateMutability": "view",
      "type": "function"
    },
    {
      "inputs": [
        {
          "internalType": "uint256",
          "name": "tokenId",
          "type": "uint256"
        }
      ],
      "name": "ownerOf",
      "outputs": [
        {
          "internalType": "address",
          "name": "",
          "type": "address"
        }
      ],
      "stateMutability": "view",
      "type": "function"
    },
    {
      "inputs": [
        {
          "internalType": "address",
          "name": "from",
          "type": "address"
        },
        {
          "internalType": "address",
          "name": "to",
          "type": "address"
        },
        {
          "internalType": "uint256",
          "name": "tokenId",
          "type": "uint256"
        }
      ],
      "name": "safeTransferFrom",
      "outputs": [],
      "stateMutability": "nonpayable",
      "type": "function"
    },
    {
      "inputs": [
        {
          "internalType": "address",
          "name": "from",
          "type": "address"
        },
        {
          "internalType": "address",
          "name": "to",
          "type": "address"
        },
        {
          "internalType": "uint256",
          "name": "tokenId",
          "type": "uint256"
        },
        {
          "internalType": "bytes",
          "name": "_data",
          "type": "bytes"
        }
      ],
      "name": "safeTransferFrom",
      "outputs": [],
      "stateMutability": "nonpayable",
      "type": "function"
    },
    {
      "inputs": [
        {
          "internalType": "address",
          "name": "operator",
          "type": "address"
        },
        {
          "internalType": "bool",
          "name": "approved",
          "type": "bool"
        }
      ],
      "name": "setApprovalForAll",
      "outputs": [],
      "stateMutability": "nonpayable",
      "type": "function"
    },
    {
      "inputs": [
        {
          "internalType": "bytes4",
          "name": "interfaceId",
          "type": "bytes4"
        }
      ],
      "name": "supportsInterface",
      "outputs": [
        {
          "internalType": "bool",
          "name": "",
          "type": "bool"
        }
      ],
      "stateMutability": "view",
      "type": "function"
    },
    {
      "inputs": [],
      "name": "symbol",
      "outputs": [
        {
          "internalType": "string",
          "name": "",
          "type": "string"
        }
      ],
      "stateMutability": "view",
      "type": "function"
    },
    {
      "inputs": [
        {
          "internalType": "uint256",
          "name": "tokenId",
          "type": "uint256"
        }
      ],
      "name": "tokenURI",
      "outputs": [
        {
          "internalType": "string",
          "name": "",
          "type": "string"
        }
      ],
      "stateMutability": "view",
      "type": "function"
    },
    {
      "inputs": [
        {
          "internalType": "address",
          "name": "from",
          "type": "address"
        },
        {
          "internalType": "address",
          "name": "to",
          "type": "address"
        },
        {
          "internalType": "uint256",
          "name": "tokenId",
          "type": "uint256"
        }
      ],
      "name": "transferFrom",
      "outputs": [],
      "stateMutability": "nonpayable",
      "type": "function"
    }
  ],
  "bytecode": "0x60806040523480156200001157600080fd5b506040518060400160405280600a81526020017f43726564656e7469616c000000000000000000000000000000000000000000008152506040518060400160405280600481526020017f4352454400000000000000000000000000000000000000000000000000000000815250816000908051906020019062000096929190620000f9565b508060019080519060200190620000af929190620000f9565b50505033600960006101000a81548173ffffffffffffffffffffffffffffffffffffffff021916908373ffffffffffffffffffffffffffffffffffffffff1602179055506200020e565b8280546200010790620001a9565b90600052602060002090601f0160209004810192826200012b576000855562000177565b82601f106200014657805160ff191683800117855562000177565b8280016001018555821562000177579182015b828111156200017657825182559160200191906001019062000159565b5b5090506200018691906200018a565b5090565b5b80821115620001a55760008160009055506001016200018b565b5090565b60006002820490506001821680620001c257607f821691505b60208210811415620001d957620001d8620001df565b5b50919050565b7f4e487b7100000000000000000000000000000000000000000000000000000000600052602260045260246000fd5b6140ed806200021e6000396000f3fe608060405234801561001057600080fd5b50600436106101375760003560e01c80638ebfb726116100b8578063c3eecc661161007c578063c3eecc661461033c578063c87b56dd1461036c578063ddfbdace1461039c578063e5de0a2f146103cc578063e985e9c5146103e8578063ee2977831461041857610137565b80638ebfb726146102aa57806395d89b41146102c8578063a22cb465146102e6578063a9611db114610302578063b88d4fde1461032057610137565b806342842e0e116100ff57806342842e0e146101f257806354b5b41f1461020e5780636352211e1461022c57806370a082311461025c5780637293d75b1461028c57610137565b806301ffc9a71461013c57806306fdde031461016c578063081812fc1461018a578063095ea7b3146101ba57806323b872dd146101d6575b600080fd5b61015660048036038101906101519190612fcf565b610448565b6040516101639190613567565b60405180910390f35b61017461052a565b6040516101819190613582565b60405180910390f35b6101a4600480360381019061019f9190613062565b6105bc565b6040516101b191906134a7565b60405180910390f35b6101d460048036038101906101cf9190612f93565b610641565b005b6101f060048036038101906101eb9190612e8d565b610759565b005b61020c60048036038101906102079190612e8d565b6107b9565b005b6102166107d9565b6040516102239190613545565b60405180910390f35b61024660048036038101906102419190613062565b610a9a565b60405161025391906134a7565b60405180910390f35b61027660048036038101906102719190612e28565b610b4c565b60405161028391906137a4565b60405180910390f35b610294610c04565b6040516102a19190613545565b60405180910390f35b6102b2610f34565b6040516102bf9190613545565b60405180910390f35b6102d061115b565b6040516102dd9190613582565b60405180910390f35b61030060048036038101906102fb9190612f57565b6111ed565b005b61030a611203565b6040516103179190613545565b60405180910390f35b61033a60048036038101906103359190612edc565b611533565b005b61035660048036038101906103519190613021565b611595565b60405161036391906137a4565b60405180910390f35b61038660048036038101906103819190613062565b6115d5565b6040516103939190613582565b60405180910390f35b6103b660048036038101906103b19190613062565b611727565b6040516103c39190613545565b60405180910390f35b6103e660048036038101906103e19190613062565b6118e5565b005b61040260048036038101906103fd9190612e51565b611981565b60405161040f9190613567565b60405180910390f35b610432600480360381019061042d9190612e28565b611a15565b60405161043f9190613545565b60405180910390f35b60007f80ac58cd000000000000000000000000000000000000000000000000000000007bffffffffffffffffffffffffffffffffffffffffffffffffffffffff1916827bffffffffffffffffffffffffffffffffffffffffffffffffffffffff1916148061051357507f5b5e139f000000000000000000000000000000000000000000000000000000007bffffffffffffffffffffffffffffffffffffffffffffffffffffffff1916827bffffffffffffffffffffffffffffffffffffffffffffffffffffffff1916145b80610523575061052282611d47565b5b9050919050565b60606000805461053990613a33565b80601f016020809104026020016040519081016040528092919081815260200182805461056590613a33565b80156105b25780601f10610587576101008083540402835291602001916105b2565b820191906000526020600020905b81548152906001019060200180831161059557829003601f168201915b5050505050905090565b60006105c782611db1565b610606576040517f08c379a00000000000000000000000000000000000000000000000000000000081526004016105fd90613724565b60405180910390fd5b6004600083815260200190815260200160002060009054906101000a900473ffffffffffffffffffffffffffffffffffffffff169050919050565b600061064c82610a9a565b90508073ffffffffffffffffffffffffffffffffffffffff168373ffffffffffffffffffffffffffffffffffffffff1614156106bd576040517f08c379a00000000000000000000000000000000000000000000000000000000081526004016106b490613764565b60405180910390fd5b8073ffffffffffffffffffffffffffffffffffffffff166106dc611e1d565b73ffffffffffffffffffffffffffffffffffffffff16148061070b575061070a81610705611e1d565b611981565b5b61074a576040517f08c379a000000000000000000000000000000000000000000000000000000000815260040161074190613664565b60405180910390fd5b6107548383611e25565b505050565b61076a610764611e1d565b82611ede565b6107a9576040517f08c379a00000000000000000000000000000000000000000000000000000000081526004016107a090613784565b60405180910390fd5b6107b4838383611fbc565b505050565b6107d483838360405180602001604052806000815250611533565b505050565b606060006107e76007612223565b905060006107f56008612223565b6107ff6007612223565b6108099190613949565b90506000808267ffffffffffffffff81111561084e577f4e487b7100000000000000000000000000000000000000000000000000000000600052604160045260246000fd5b60405190808252806020026020018201604052801561088757816020015b610874612bf6565b81526020019060019003908161086c5790505b50905060005b84811015610a8f573073ffffffffffffffffffffffffffffffffffffffff16600a60006001846108bd91906138c2565b815260200190815260200160002060020160009054906101000a900473ffffffffffffffffffffffffffffffffffffffff1673ffffffffffffffffffffffffffffffffffffffff161415610a7c576000600a600060018461091e91906138c2565b81526020019081526020016000206000015490506000600a6000838152602001908152602001600020905080604051806080016040529081600082015481526020016001820160009054906101000a900473ffffffffffffffffffffffffffffffffffffffff1673ffffffffffffffffffffffffffffffffffffffff1673ffffffffffffffffffffffffffffffffffffffff1681526020016002820160009054906101000a900473ffffffffffffffffffffffffffffffffffffffff1673ffffffffffffffffffffffffffffffffffffffff1673ffffffffffffffffffffffffffffffffffffffff1681526020016002820160149054906101000a900460ff161515151581525050848681518110610a5f577f4e487b7100000000000000000000000000000000000000000000000000000000600052603260045260246000fd5b6020026020010181905250600185610a7791906138c2565b945050505b8080610a8790613a96565b91505061088d565b508094505050505090565b6000806002600084815260200190815260200160002060009054906101000a900473ffffffffffffffffffffffffffffffffffffffff169050600073ffffffffffffffffffffffffffffffffffffffff168173ffffffffffffffffffffffffffffffffffffffff161415610b43576040517f08c379a0000000000000000000000000000000000000000000000000000000008152600401610b3a906136a4565b60405180910390fd5b80915050919050565b60008073ffffffffffffffffffffffffffffffffffffffff168273ffffffffffffffffffffffffffffffffffffffff161415610bbd576040517f08c379a0000000000000000000000000000000000000000000000000000000008152600401610bb490613684565b60405180910390fd5b600360008373ffffffffffffffffffffffffffffffffffffffff1673ffffffffffffffffffffffffffffffffffffffff168152602001908152602001600020549050919050565b60606000610c126007612223565b905060008060005b83811015610cbb573373ffffffffffffffffffffffffffffffffffffffff16600a6000600184610c4a91906138c2565b815260200190815260200160002060010160009054906101000a900473ffffffffffffffffffffffffffffffffffffffff1673ffffffffffffffffffffffffffffffffffffffff161415610ca857600183610ca591906138c2565b92505b8080610cb390613a96565b915050610c1a565b5060008267ffffffffffffffff811115610cfe577f4e487b7100000000000000000000000000000000000000000000000000000000600052604160045260246000fd5b604051908082528060200260200182016040528015610d3757816020015b610d24612bf6565b815260200190600190039081610d1c5790505b50905060005b84811015610f29573373ffffffffffffffffffffffffffffffffffffffff16600a6000600184610d6d91906138c2565b815260200190815260200160002060010160009054906101000a900473ffffffffffffffffffffffffffffffffffffffff1673ffffffffffffffffffffffffffffffffffffffff161415610f16576000600182610dca91906138c2565b90506000600a6000838152602001908152602001600020905080604051806080016040529081600082015481526020016001820160009054906101000a900473ffffffffffffffffffffffffffffffffffffffff1673ffffffffffffffffffffffffffffffffffffffff1673ffffffffffffffffffffffffffffffffffffffff1681526020016002820160009054906101000a900473ffffffffffffffffffffffffffffffffffffffff1673ffffffffffffffffffffffffffffffffffffffff1673ffffffffffffffffffffffffffffffffffffffff1681526020016002820160149054906101000a900460ff161515151581525050848681518110610ef9577f4e487b7100000000000000000000000000000000000000000000000000000000600052603260045260246000fd5b6020026020010181905250600185610f1191906138c2565b945050505b8080610f2190613a96565b915050610d3d565b508094505050505090565b60606000610f426007612223565b90506000808267ffffffffffffffff811115610f87577f4e487b7100000000000000000000000000000000000000000000000000000000600052604160045260246000fd5b604051908082528060200260200182016040528015610fc057816020015b610fad612bf6565b815260200190600190039081610fa55790505b50905060005b83811015611151576000600a6000600184610fe191906138c2565b81526020019081526020016000206000015490506000600a6000838152602001908152602001600020905080604051806080016040529081600082015481526020016001820160009054906101000a900473ffffffffffffffffffffffffffffffffffffffff1673ffffffffffffffffffffffffffffffffffffffff1673ffffffffffffffffffffffffffffffffffffffff1681526020016002820160009054906101000a900473ffffffffffffffffffffffffffffffffffffffff1673ffffffffffffffffffffffffffffffffffffffff1673ffffffffffffffffffffffffffffffffffffffff1681526020016002820160149054906101000a900460ff161515151581525050848681518110611122577f4e487b7100000000000000000000000000000000000000000000000000000000600052603260045260246000fd5b602002602001018190525060018561113a91906138c2565b94505050808061114990613a96565b915050610fc6565b5080935050505090565b60606001805461116a90613a33565b80601f016020809104026020016040519081016040528092919081815260200182805461119690613a33565b80156111e35780601f106111b8576101008083540402835291602001916111e3565b820191906000526020600020905b8154815290600101906020018083116111c657829003601f168201915b5050505050905090565b6111ff6111f8611e1d565b8383612231565b5050565b606060006112116007612223565b905060008060005b838110156112ba573373ffffffffffffffffffffffffffffffffffffffff16600a600060018461124991906138c2565b815260200190815260200160002060020160009054906101000a900473ffffffffffffffffffffffffffffffffffffffff1673ffffffffffffffffffffffffffffffffffffffff1614156112a7576001836112a491906138c2565b92505b80806112b290613a96565b915050611219565b5060008267ffffffffffffffff8111156112fd577f4e487b7100000000000000000000000000000000000000000000000000000000600052604160045260246000fd5b60405190808252806020026020018201604052801561133657816020015b611323612bf6565b81526020019060019003908161131b5790505b50905060005b84811015611528573373ffffffffffffffffffffffffffffffffffffffff16600a600060018461136c91906138c2565b815260200190815260200160002060020160009054906101000a900473ffffffffffffffffffffffffffffffffffffffff1673ffffffffffffffffffffffffffffffffffffffff1614156115155760006001826113c991906138c2565b90506000600a6000838152602001908152602001600020905080604051806080016040529081600082015481526020016001820160009054906101000a900473ffffffffffffffffffffffffffffffffffffffff1673ffffffffffffffffffffffffffffffffffffffff1673ffffffffffffffffffffffffffffffffffffffff1681526020016002820160009054906101000a900473ffffffffffffffffffffffffffffffffffffffff1673ffffffffffffffffffffffffffffffffffffffff1673ffffffffffffffffffffffffffffffffffffffff1681526020016002820160149054906101000a900460ff1615151515815250508486815181106114f8577f4e487b7100000000000000000000000000000000000000000000000000000000600052603260045260246000fd5b602002602001018190525060018561151091906138c2565b945050505b808061152090613a96565b91505061133c565b508094505050505090565b61154461153e611e1d565b83611ede565b611583576040517f08c379a000000000000000000000000000000000000000000000000000000000815260040161157a90613784565b60405180910390fd5b61158f8484848461239e565b50505050565b60006115a160076123fa565b60006115ad6007612223565b90506115b93382612410565b6115c381846125ea565b6115cc8161265e565b80915050919050565b60606115e082611db1565b61161f576040517f08c379a000000000000000000000000000000000000000000000000000000000815260040161161690613704565b60405180910390fd5b600060066000848152602001908152602001600020805461163f90613a33565b80601f016020809104026020016040519081016040528092919081815260200182805461166b90613a33565b80156116b85780601f1061168d576101008083540402835291602001916116b8565b820191906000526020600020905b81548152906001019060200180831161169b57829003601f168201915b5050505050905060006116c96127c7565b90506000815114156116df578192505050611722565b6000825111156117145780826040516020016116fc929190613483565b60405160208183030381529060405292505050611722565b61171d846127de565b925050505b919050565b60606000600167ffffffffffffffff81111561176c577f4e487b7100000000000000000000000000000000000000000000000000000000600052604160045260246000fd5b6040519080825280602002602001820160405280156117a557816020015b611792612bf6565b81526020019060019003908161178a5790505b509050600a6000848152602001908152602001600020604051806080016040529081600082015481526020016001820160009054906101000a900473ffffffffffffffffffffffffffffffffffffffff1673ffffffffffffffffffffffffffffffffffffffff1673ffffffffffffffffffffffffffffffffffffffff1681526020016002820160009054906101000a900473ffffffffffffffffffffffffffffffffffffffff1673ffffffffffffffffffffffffffffffffffffffff1673ffffffffffffffffffffffffffffffffffffffff1681526020016002820160149054906101000a900460ff161515151581525050816000815181106118d1577f4e487b7100000000000000000000000000000000000000000000000000000000600052603260045260246000fd5b602002602001018190525080915050919050565b6118f0303383611fbc565b33600a600083815260200190815260200160002060020160006101000a81548173ffffffffffffffffffffffffffffffffffffffff021916908373ffffffffffffffffffffffffffffffffffffffff1602179055506001600a600083815260200190815260200160002060020160146101000a81548160ff02191690831515021790555061197e60086123fa565b50565b6000600560008473ffffffffffffffffffffffffffffffffffffffff1673ffffffffffffffffffffffffffffffffffffffff16815260200190815260200160002060008373ffffffffffffffffffffffffffffffffffffffff1673ffffffffffffffffffffffffffffffffffffffff16815260200190815260200160002060009054906101000a900460ff16905092915050565b60606000611a236007612223565b905060008060005b83811015611acc578573ffffffffffffffffffffffffffffffffffffffff16600a6000600184611a5b91906138c2565b815260200190815260200160002060020160009054906101000a900473ffffffffffffffffffffffffffffffffffffffff1673ffffffffffffffffffffffffffffffffffffffff161415611ab957600183611ab691906138c2565b92505b8080611ac490613a96565b915050611a2b565b5060008267ffffffffffffffff811115611b0f577f4e487b7100000000000000000000000000000000000000000000000000000000600052604160045260246000fd5b604051908082528060200260200182016040528015611b4857816020015b611b35612bf6565b815260200190600190039081611b2d5790505b50905060005b84811015611d3a578673ffffffffffffffffffffffffffffffffffffffff16600a6000600184611b7e91906138c2565b815260200190815260200160002060020160009054906101000a900473ffffffffffffffffffffffffffffffffffffffff1673ffffffffffffffffffffffffffffffffffffffff161415611d27576000600182611bdb91906138c2565b90506000600a6000838152602001908152602001600020905080604051806080016040529081600082015481526020016001820160009054906101000a900473ffffffffffffffffffffffffffffffffffffffff1673ffffffffffffffffffffffffffffffffffffffff1673ffffffffffffffffffffffffffffffffffffffff1681526020016002820160009054906101000a900473ffffffffffffffffffffffffffffffffffffffff1673ffffffffffffffffffffffffffffffffffffffff1673ffffffffffffffffffffffffffffffffffffffff1681526020016002820160149054906101000a900460ff161515151581525050848681518110611d0a577f4e487b7100000000000000000000000000000000000000000000000000000000600052603260045260246000fd5b6020026020010181905250600185611d2291906138c2565b945050505b8080611d3290613a96565b915050611b4e565b5080945050505050919050565b60007f01ffc9a7000000000000000000000000000000000000000000000000000000007bffffffffffffffffffffffffffffffffffffffffffffffffffffffff1916827bffffffffffffffffffffffffffffffffffffffffffffffffffffffff1916149050919050565b60008073ffffffffffffffffffffffffffffffffffffffff166002600084815260200190815260200160002060009054906101000a900473ffffffffffffffffffffffffffffffffffffffff1673ffffffffffffffffffffffffffffffffffffffff1614159050919050565b600033905090565b816004600083815260200190815260200160002060006101000a81548173ffffffffffffffffffffffffffffffffffffffff021916908373ffffffffffffffffffffffffffffffffffffffff160217905550808273ffffffffffffffffffffffffffffffffffffffff16611e9883610a9a565b73ffffffffffffffffffffffffffffffffffffffff167f8c5be1e5ebec7d5bd14f71427d1e84f3dd0314c0f7b2291e5b200ac8c7c3b92560405160405180910390a45050565b6000611ee982611db1565b611f28576040517f08c379a0000000000000000000000000000000000000000000000000000000008152600401611f1f90613644565b60405180910390fd5b6000611f3383610a9a565b90508073ffffffffffffffffffffffffffffffffffffffff168473ffffffffffffffffffffffffffffffffffffffff161480611f755750611f748185611981565b5b80611fb357508373ffffffffffffffffffffffffffffffffffffffff16611f9b846105bc565b73ffffffffffffffffffffffffffffffffffffffff16145b91505092915050565b8273ffffffffffffffffffffffffffffffffffffffff16611fdc82610a9a565b73ffffffffffffffffffffffffffffffffffffffff1614612032576040517f08c379a0000000000000000000000000000000000000000000000000000000008152600401612029906135c4565b60405180910390fd5b600073ffffffffffffffffffffffffffffffffffffffff168273ffffffffffffffffffffffffffffffffffffffff1614156120a2576040517f08c379a000000000000000000000000000000000000000000000000000000000815260040161209990613604565b60405180910390fd5b6120ad838383612885565b6120b8600082611e25565b6001600360008573ffffffffffffffffffffffffffffffffffffffff1673ffffffffffffffffffffffffffffffffffffffff16815260200190815260200160002060008282546121089190613949565b925050819055506001600360008473ffffffffffffffffffffffffffffffffffffffff1673ffffffffffffffffffffffffffffffffffffffff168152602001908152602001600020600082825461215f91906138c2565b92505081905550816002600083815260200190815260200160002060006101000a81548173ffffffffffffffffffffffffffffffffffffffff021916908373ffffffffffffffffffffffffffffffffffffffff160217905550808273ffffffffffffffffffffffffffffffffffffffff168473ffffffffffffffffffffffffffffffffffffffff167fddf252ad1be2c89b69c2b068fc378daa952ba7f163c4a11628f55a4df523b3ef60405160405180910390a461221e83838361288a565b505050565b600081600001549050919050565b8173ffffffffffffffffffffffffffffffffffffffff168373ffffffffffffffffffffffffffffffffffffffff1614156122a0576040517f08c379a000000000000000000000000000000000000000000000000000000000815260040161229790613624565b60405180910390fd5b80600560008573ffffffffffffffffffffffffffffffffffffffff1673ffffffffffffffffffffffffffffffffffffffff16815260200190815260200160002060008473ffffffffffffffffffffffffffffffffffffffff1673ffffffffffffffffffffffffffffffffffffffff16815260200190815260200160002060006101000a81548160ff0219169083151502179055508173ffffffffffffffffffffffffffffffffffffffff168373ffffffffffffffffffffffffffffffffffffffff167f17307eab39ab6107e8899845ad3d59bd9653f200f220920489ca2b5937696c31836040516123919190613567565b60405180910390a3505050565b6123a9848484611fbc565b6123b58484848461288f565b6123f4576040517f08c379a00000000000000000000000000000000000000000000000000000000081526004016123eb906135a4565b60405180910390fd5b50505050565b6001816000016000828254019250508190555050565b600073ffffffffffffffffffffffffffffffffffffffff168273ffffffffffffffffffffffffffffffffffffffff161415612480576040517f08c379a0000000000000000000000000000000000000000000000000000000008152600401612477906136e4565b60405180910390fd5b61248981611db1565b156124c9576040517f08c379a00000000000000000000000000000000000000000000000000000000081526004016124c0906135e4565b60405180910390fd5b6124d560008383612885565b6001600360008473ffffffffffffffffffffffffffffffffffffffff1673ffffffffffffffffffffffffffffffffffffffff168152602001908152602001600020600082825461252591906138c2565b92505081905550816002600083815260200190815260200160002060006101000a81548173ffffffffffffffffffffffffffffffffffffffff021916908373ffffffffffffffffffffffffffffffffffffffff160217905550808273ffffffffffffffffffffffffffffffffffffffff16600073ffffffffffffffffffffffffffffffffffffffff167fddf252ad1be2c89b69c2b068fc378daa952ba7f163c4a11628f55a4df523b3ef60405160405180910390a46125e66000838361288a565b5050565b6125f382611db1565b612632576040517f08c379a0000000000000000000000000000000000000000000000000000000008152600401612629906136c4565b60405180910390fd5b80600660008481526020019081526020016000209080519060200190612659929190612c4c565b505050565b60405180608001604052808281526020013373ffffffffffffffffffffffffffffffffffffffff1681526020013073ffffffffffffffffffffffffffffffffffffffff16815260200160001515815250600a60008381526020019081526020016000206000820151816000015560208201518160010160006101000a81548173ffffffffffffffffffffffffffffffffffffffff021916908373ffffffffffffffffffffffffffffffffffffffff16021790555060408201518160020160006101000a81548173ffffffffffffffffffffffffffffffffffffffff021916908373ffffffffffffffffffffffffffffffffffffffff16021790555060608201518160020160146101000a81548160ff021916908315150217905550905050612787333083611fbc565b807fb11a1a81f4412fced5963f483bb78dc6455d3ea54e3a42c52720130f51085166333060006040516127bc939291906134c2565b60405180910390a250565b606060405180602001604052806000815250905090565b60606127e982611db1565b612828576040517f08c379a000000000000000000000000000000000000000000000000000000000815260040161281f90613744565b60405180910390fd5b60006128326127c7565b90506000815111612852576040518060200160405280600081525061287d565b8061285c84612a26565b60405160200161286d929190613483565b6040516020818303038152906040525b915050919050565b505050565b505050565b60006128b08473ffffffffffffffffffffffffffffffffffffffff16612bd3565b15612a19578373ffffffffffffffffffffffffffffffffffffffff1663150b7a026128d9611e1d565b8786866040518563ffffffff1660e01b81526004016128fb94939291906134f9565b602060405180830381600087803b15801561291557600080fd5b505af192505050801561294657506040513d601f19601f820116820180604052508101906129439190612ff8565b60015b6129c9573d8060008114612976576040519150601f19603f3d011682016040523d82523d6000602084013e61297b565b606091505b506000815114156129c1576040517f08c379a00000000000000000000000000000000000000000000000000000000081526004016129b8906135a4565b60405180910390fd5b805181602001fd5b63150b7a0260e01b7bffffffffffffffffffffffffffffffffffffffffffffffffffffffff1916817bffffffffffffffffffffffffffffffffffffffffffffffffffffffff191614915050612a1e565b600190505b949350505050565b60606000821415612a6e576040518060400160405280600181526020017f30000000000000000000000000000000000000000000000000000000000000008152509050612bce565b600082905060005b60008214612aa0578080612a8990613a96565b915050600a82612a999190613918565b9150612a76565b60008167ffffffffffffffff811115612ae2577f4e487b7100000000000000000000000000000000000000000000000000000000600052604160045260246000fd5b6040519080825280601f01601f191660200182016040528015612b145781602001600182028036833780820191505090505b5090505b60008514612bc757600182612b2d9190613949565b9150600a85612b3c9190613adf565b6030612b4891906138c2565b60f81b818381518110612b84577f4e487b7100000000000000000000000000000000000000000000000000000000600052603260045260246000fd5b60200101907effffffffffffffffffffffffffffffffffffffffffffffffffffffffffffff1916908160001a905350600a85612bc09190613918565b9450612b18565b8093505050505b919050565b6000808273ffffffffffffffffffffffffffffffffffffffff163b119050919050565b604051806080016040528060008152602001600073ffffffffffffffffffffffffffffffffffffffff168152602001600073ffffffffffffffffffffffffffffffffffffffff1681526020016000151581525090565b828054612c5890613a33565b90600052602060002090601f016020900481019282612c7a5760008555612cc1565b82601f10612c9357805160ff1916838001178555612cc1565b82800160010185558215612cc1579182015b82811115612cc0578251825591602001919060010190612ca5565b5b509050612cce9190612cd2565b5090565b5b80821115612ceb576000816000905550600101612cd3565b5090565b6000612d02612cfd846137e4565b6137bf565b905082815260208101848484011115612d1a57600080fd5b612d258482856139f1565b509392505050565b6000612d40612d3b84613815565b6137bf565b905082815260208101848484011115612d5857600080fd5b612d638482856139f1565b509392505050565b600081359050612d7a8161405b565b92915050565b600081359050612d8f81614072565b92915050565b600081359050612da481614089565b92915050565b600081519050612db981614089565b92915050565b600082601f830112612dd057600080fd5b8135612de0848260208601612cef565b91505092915050565b600082601f830112612dfa57600080fd5b8135612e0a848260208601612d2d565b91505092915050565b600081359050612e22816140a0565b92915050565b600060208284031215612e3a57600080fd5b6000612e4884828501612d6b565b91505092915050565b60008060408385031215612e6457600080fd5b6000612e7285828601612d6b565b9250506020612e8385828601612d6b565b9150509250929050565b600080600060608486031215612ea257600080fd5b6000612eb086828701612d6b565b9350506020612ec186828701612d6b565b9250506040612ed286828701612e13565b9150509250925092565b60008060008060808587031215612ef257600080fd5b6000612f0087828801612d6b565b9450506020612f1187828801612d6b565b9350506040612f2287828801612e13565b925050606085013567ffffffffffffffff811115612f3f57600080fd5b612f4b87828801612dbf565b91505092959194509250565b60008060408385031215612f6a57600080fd5b6000612f7885828601612d6b565b9250506020612f8985828601612d80565b9150509250929050565b60008060408385031215612fa657600080fd5b6000612fb485828601612d6b565b9250506020612fc585828601612e13565b9150509250929050565b600060208284031215612fe157600080fd5b6000612fef84828501612d95565b91505092915050565b60006020828403121561300a57600080fd5b600061301884828501612daa565b91505092915050565b60006020828403121561303357600080fd5b600082013567ffffffffffffffff81111561304d57600080fd5b61305984828501612de9565b91505092915050565b60006020828403121561307457600080fd5b600061308284828501612e13565b91505092915050565b60006130978383613410565b60808301905092915050565b6130ac8161397d565b82525050565b6130bb8161397d565b82525050565b60006130cc82613856565b6130d68185613884565b93506130e183613846565b8060005b838110156131125781516130f9888261308b565b975061310483613877565b9250506001810190506130e5565b5085935050505092915050565b6131288161398f565b82525050565b6131378161398f565b82525050565b600061314882613861565b6131528185613895565b9350613162818560208601613a00565b61316b81613bcc565b840191505092915050565b60006131818261386c565b61318b81856138a6565b935061319b818560208601613a00565b6131a481613bcc565b840191505092915050565b60006131ba8261386c565b6131c481856138b7565b93506131d4818560208601613a00565b80840191505092915050565b60006131ed6032836138a6565b91506131f882613bdd565b604082019050919050565b60006132106025836138a6565b915061321b82613c2c565b604082019050919050565b6000613233601c836138a6565b915061323e82613c7b565b602082019050919050565b60006132566024836138a6565b915061326182613ca4565b604082019050919050565b60006132796019836138a6565b915061328482613cf3565b602082019050919050565b600061329c602c836138a6565b91506132a782613d1c565b604082019050919050565b60006132bf6038836138a6565b91506132ca82613d6b565b604082019050919050565b60006132e2602a836138a6565b91506132ed82613dba565b604082019050919050565b60006133056029836138a6565b915061331082613e09565b604082019050919050565b6000613328602e836138a6565b915061333382613e58565b604082019050919050565b600061334b6020836138a6565b915061335682613ea7565b602082019050919050565b600061336e6031836138a6565b915061337982613ed0565b604082019050919050565b6000613391602c836138a6565b915061339c82613f1f565b604082019050919050565b60006133b4602f836138a6565b91506133bf82613f6e565b604082019050919050565b60006133d76021836138a6565b91506133e282613fbd565b604082019050919050565b60006133fa6031836138a6565b91506134058261400c565b604082019050919050565b6080820160008201516134266000850182613465565b50602082015161343960208501826130a3565b50604082015161344c60408501826130a3565b50606082015161345f606085018261311f565b50505050565b61346e816139e7565b82525050565b61347d816139e7565b82525050565b600061348f82856131af565b915061349b82846131af565b91508190509392505050565b60006020820190506134bc60008301846130b2565b92915050565b60006060820190506134d760008301866130b2565b6134e460208301856130b2565b6134f1604083018461312e565b949350505050565b600060808201905061350e60008301876130b2565b61351b60208301866130b2565b6135286040830185613474565b818103606083015261353a818461313d565b905095945050505050565b6000602082019050818103600083015261355f81846130c1565b905092915050565b600060208201905061357c600083018461312e565b92915050565b6000602082019050818103600083015261359c8184613176565b905092915050565b600060208201905081810360008301526135bd816131e0565b9050919050565b600060208201905081810360008301526135dd81613203565b9050919050565b600060208201905081810360008301526135fd81613226565b9050919050565b6000602082019050818103600083015261361d81613249565b9050919050565b6000602082019050818103600083015261363d8161326c565b9050919050565b6000602082019050818103600083015261365d8161328f565b9050919050565b6000602082019050818103600083015261367d816132b2565b9050919050565b6000602082019050818103600083015261369d816132d5565b9050919050565b600060208201905081810360008301526136bd816132f8565b9050919050565b600060208201905081810360008301526136dd8161331b565b9050919050565b600060208201905081810360008301526136fd8161333e565b9050919050565b6000602082019050818103600083015261371d81613361565b9050919050565b6000602082019050818103600083015261373d81613384565b9050919050565b6000602082019050818103600083015261375d816133a7565b9050919050565b6000602082019050818103600083015261377d816133ca565b9050919050565b6000602082019050818103600083015261379d816133ed565b9050919050565b60006020820190506137b96000830184613474565b92915050565b60006137c96137da565b90506137d58282613a65565b919050565b6000604051905090565b600067ffffffffffffffff8211156137ff576137fe613b9d565b5b61380882613bcc565b9050602081019050919050565b600067ffffffffffffffff8211156138305761382f613b9d565b5b61383982613bcc565b9050602081019050919050565b6000819050602082019050919050565b600081519050919050565b600081519050919050565b600081519050919050565b6000602082019050919050565b600082825260208201905092915050565b600082825260208201905092915050565b600082825260208201905092915050565b600081905092915050565b60006138cd826139e7565b91506138d8836139e7565b9250827fffffffffffffffffffffffffffffffffffffffffffffffffffffffffffffffff0382111561390d5761390c613b10565b5b828201905092915050565b6000613923826139e7565b915061392e836139e7565b92508261393e5761393d613b3f565b5b828204905092915050565b6000613954826139e7565b915061395f836139e7565b92508282101561397257613971613b10565b5b828203905092915050565b6000613988826139c7565b9050919050565b60008115159050919050565b60007fffffffff0000000000000000000000000000000000000000000000000000000082169050919050565b600073ffffffffffffffffffffffffffffffffffffffff82169050919050565b6000819050919050565b82818337600083830152505050565b60005b83811015613a1e578082015181840152602081019050613a03565b83811115613a2d576000848401525b50505050565b60006002820490506001821680613a4b57607f821691505b60208210811415613a5f57613a5e613b6e565b5b50919050565b613a6e82613bcc565b810181811067ffffffffffffffff82111715613a8d57613a8c613b9d565b5b80604052505050565b6000613aa1826139e7565b91507fffffffffffffffffffffffffffffffffffffffffffffffffffffffffffffffff821415613ad457613ad3613b10565b5b600182019050919050565b6000613aea826139e7565b9150613af5836139e7565b925082613b0557613b04613b3f565b5b828206905092915050565b7f4e487b7100000000000000000000000000000000000000000000000000000000600052601160045260246000fd5b7f4e487b7100000000000000000000000000000000000000000000000000000000600052601260045260246000fd5b7f4e487b7100000000000000000000000000000000000000000000000000000000600052602260045260246000fd5b7f4e487b7100000000000000000000000000000000000000000000000000000000600052604160045260246000fd5b6000601f19601f8301169050919050565b7f4552433732313a207472616e7366657220746f206e6f6e20455243373231526560008201527f63656976657220696d706c656d656e7465720000000000000000000000000000602082015250565b7f4552433732313a207472616e736665722066726f6d20696e636f72726563742060008201527f6f776e6572000000000000000000000000000000000000000000000000000000602082015250565b7f4552433732313a20746f6b656e20616c7265616479206d696e74656400000000600082015250565b7f4552433732313a207472616e7366657220746f20746865207a65726f2061646460008201527f7265737300000000000000000000000000000000000000000000000000000000602082015250565b7f4552433732313a20617070726f766520746f2063616c6c657200000000000000600082015250565b7f4552433732313a206f70657261746f7220717565727920666f72206e6f6e657860008201527f697374656e7420746f6b656e0000000000000000000000000000000000000000602082015250565b7f4552433732313a20617070726f76652063616c6c6572206973206e6f74206f7760008201527f6e6572206e6f7220617070726f76656420666f7220616c6c0000000000000000602082015250565b7f4552433732313a2062616c616e636520717565727920666f7220746865207a6560008201527f726f206164647265737300000000000000000000000000000000000000000000602082015250565b7f4552433732313a206f776e657220717565727920666f72206e6f6e657869737460008201527f656e7420746f6b656e0000000000000000000000000000000000000000000000602082015250565b7f45524337323155524953746f726167653a2055524920736574206f66206e6f6e60008201527f6578697374656e7420746f6b656e000000000000000000000000000000000000602082015250565b7f4552433732313a206d696e7420746f20746865207a65726f2061646472657373600082015250565b7f45524337323155524953746f726167653a2055524920717565727920666f722060008201527f6e6f6e6578697374656e7420746f6b656e000000000000000000000000000000602082015250565b7f4552433732313a20617070726f76656420717565727920666f72206e6f6e657860008201527f697374656e7420746f6b656e0000000000000000000000000000000000000000602082015250565b7f4552433732314d657461646174613a2055524920717565727920666f72206e6f60008201527f6e6578697374656e7420746f6b656e0000000000000000000000000000000000602082015250565b7f4552433732313a20617070726f76616c20746f2063757272656e74206f776e6560008201527f7200000000000000000000000000000000000000000000000000000000000000602082015250565b7f4552433732313a207472616e736665722063616c6c6572206973206e6f74206f60008201527f776e6572206e6f7220617070726f766564000000000000000000000000000000602082015250565b6140648161397d565b811461406f57600080fd5b50565b61407b8161398f565b811461408657600080fd5b50565b6140928161399b565b811461409d57600080fd5b50565b6140a9816139e7565b81146140b457600080fd5b5056fea2646970667358221220db11e9fc3781e71a43531d0184c069080efbde3c71a2df148d55943f9a4d6ef764736f6c63430008040033",
  "linkReferences": {},
  "deployedLinkReferences": {}
}